:020000040800F2
:10000000280D0020890100088B2A00085D260008C1
:10001000892A0008ED0500083933000800000000B7
:10002000000000000000000000000000892D000812
:100030001506000800000000ED2B0008812E0008C6
:10004000A3010008A3010008A3010008A301000800
:10005000A3010008A3010008A3010008A3010008F0
:10006000A3010008A3010008A3010008F10500088E
:10007000A3010008A3010008FD0500080906000807
:10008000A3010008A3010008F5020008A30100086D
:10009000A3010008A3010008A3010008A3010008B0
:1000A000A3010008F92E0008A3010008A30100081D
:1000B000052F0008A3010008A3010008A301000800
:1000C000A3010008A3010008A3010008A301000880
:1000D000A301000801330008A3010008A3010008E0
:1000E000A3010008A3010008A301000800F002F822
:1000F00000F03AF80AA090E8000C82448344AAF188
:100100000107DA4501D100F02FF8AFF2090EBAE885
:100110000F0013F0010F18BFFB1A43F0010318473B
:100120000444000024440000103A24BF78C878C179
:10013000FAD8520724BF30C830C144BF04680C60ED
:10014000704700000023002400250026103A28BF35
:1001500078C1FBD8520728BF30C148BF0B60704739
:100160001FB51FBD10B510BD00F08AF81146FFF78E
:10017000F7FF03F0F9F800F0A8F803B4FFF7F2FF77
:1001800003BC00F0AFF80000094880470948004769
:10019000FEE7FEE7FEE7FEE7FEE7FEE7FEE7FEE737
:1001A000FEE7FEE704480549054A064B7047000094
:1001B000F52E0008ED00000828070020280D00207B
:1001C000280900202809002010B5203AC0F00B8033
:1001D000B1E81850203AA0E81850B1E81850A0E84B
:1001E0001850BFF4F5AF5FEA027C24BFB1E81850A5
:1001F000A0E8185044BF18C918C0BDE810405FEA15
:10020000827C24BF51F8043B40F8043B08BF704790
:10021000D20728BF31F8023B48BF11F8012B28BF95
:1002200020F8023B48BF00F8012B70474FF0000256
:1002300000B5134694469646203922BFA0E80C50DC
:10024000A0E80C50B1F12001BFF4F7AF090728BFB7
:10025000A0E80C5048BF0CC05DF804EB890028BF33
:1002600040F8042B08BF704748BF20F8022B11F05C
:10027000804F18BF00F8012B7047704770477047D8
:10028000754600F02BF8AE4605006946534620F04F
:100290000700854618B020B5FFF784FFBDE8204071
:1002A0004FF000064FF000074FF000084FF0000B32
:1002B00021F00701AC46ACE8C009ACE8C009ACE8E5
:1002C000C009ACE8C0098D46704710B50446AFF3CD
:1002D00000802046BDE81040FFF74FBF0048704740
:1002E000C806002001491820ABBEFEE72600020028
:1002F00070470000014800F048BB0000CC0000201F
:1003000070B5044600688168C943C90716D1816881
:1003100021F00101816000F0E5FE054609E000F0F2
:10032000E1FE401B022804D920688068C043C00752
:1003300006D020688068C043C007F0D0002070BDA0
:10034000A06A40F01000A062E06A40F00100E062A4
:10035000012070BD10B5054A012100F039F80348AD
:10036000801E4088002800D0FEE710BD1600002047
:1003700008B56A4643F6FE7100F02AF8BDF80000A1
:1003800008BD000010B5FFF7F3FF03F05BFE044962
:1003900003F0A0FEBDE81040024903F05DBD00007F
:1003A0000000B44300FC7F4610B504460522182126
:1003B00000F06EF82046FFF7CDFF002219212046FD
:1003C00000F066F82046BDE81040FFF7C3BF00000C
:1003D000F8B5044616460B4641F4804003F05CF83D
:1003E000012801D143F40043284D43F4804000220A
:1003F000A880A188A06800F06FFE0A2002F0ADFF7F
:100400004FF4FA6700972A460123111D206801F076
:100410003DFB206801F076FA0128FAD10A2002F0AB
:100420009CFFA1880122A06800F056FE0A2002F07D
:1004300094FFA1880022A06800F04EFE0A2002F07E
:100440008CFF124A00970123111D206801F01EFB4A
:10045000206801F057FA0128FAD10A2002F07DFF46
:10046000A1880122A06800F037FE288803F014F864
:10047000012802D02888410401D50120F8BDC0F32D
:100480000D00288030800020F8BD000014000020FE
:10049000F8B5154604460A46C1F30D0002F0FCFF0C
:1004A000012801D142F40042214EB280A1880022ED
:1004B000A06800F011FE0A2002F04FFF4FF47A7797
:1004C000009732460123111D206801F0DFFA18BBA6
:1004D0000A2002F042FFA1880122A06800F0FCFD82
:1004E0000A2002F03AFFC5F30D0002F0D5FF012803
:1004F00001D145F40045B580A1880022A06800F034
:10050000EBFD0A2002F029FF094A00970123111D83
:10051000206801F0BBFA08B10120F8BD0A2002F002
:100520001CFFA1880122A06800F0D6FD0020F8BDC4
:100530001400002010B523480021A0F517740822EC
:10054000E0604838C4E904010420C4E906020C2232
:100550002262C4E909101C4820630015A086A4F19A
:100560000C00A06519486060082204F14401184895
:1005700000F07BF994F8480003F0D2F902460B46EC
:100580000020144903F074F802F090FFE064124870
:10059000E0661248206760670120A4F8780084F8BC
:1005A00084000F48C4F880000E48E0670E482066BB
:1005B00004F1540060665038A066BDE81040083071
:1005C00000F021B984020020000C01400AD7A33CAE
:1005D00000FC0108008076406F12833B17B7D138CA
:1005E0000AD7A33D0AD7A3BD00000020FEE7000004
:1005F000014800F08DBB0000FC050020014800F020
:1006000087BB000040060020014800F081BB0000CD
:1006100084060020704710B50168048E826809685E
:100620000023F4B3F2B3042A46D0082A428D46D000
:100630000A64C168B9B3042946D00829418D52D053
:10064000026812681164418E0029016970D059B3A3
:10065000042961D002680829818D126861D0116473
:10066000416981B3042960D00829818D6FD0026867
:1006700012681164818E0029816970D000296FD0C1
:1006800004296ED042680829C18D12686AD01164AD
:10069000C169002967D0042971D00829C18D6FD0A4
:1006A00003E013E005E00CE031E04068006801641D
:1006B00010BD428D4A63BCE7428D8A63B9E7CA63C5
:1006C000B7E7418D1AE02EE0418D1CE07AB1042A93
:1006D0000FD0082A0FD00B64C16871B1042911D062
:1006E0000829016AACD102681268D163ABE74B6399
:1006F000F2E78B63F0E7CB63EEE7016A026812680A
:100700005163A0E7016A0268126891639BE702687F
:10071000818D12685163A3E70268818D126891632D
:100720009EE7D1639CE7818D25E0818D2AE0FFE77C
:1007300089B1042918D008290168096818D00B6408
:100740004169B9B104291CD00829016A8FD1026816
:100750001268D1638EE7016809684B63F0E725E012
:1007600014E018E01CE01DE0016809688B63E7E70E
:10077000CB63E5E7016A0268126851637AE713E028
:1007800024E0016A02681268916373E74268C18DD0
:10079000126851637CE74268C18D1268916377E704
:1007A000D16375E7C18D20E0C18D23E091B10429AB
:1007B00014D008294168096814D00B64C16999B143
:1007C000042916D00829016A7FF46AAF40680068DE
:1007D000C16310BD416809684B63EFE74168096870
:1007E0008B63EBE7CB63E9E7016A4068006841632C
:1007F00010BD016A40680068816310BD0121018657
:100800004186818670470168C9680162AFF3008044
:1008100010B504468168006801F006FDE1682068B3
:1008200001F002FD2169206801F0FEFC6169206889
:1008300001F0FAFCA169606801F0F6FCE16960680A
:1008400001F0F2FC218D606ABDE81040012200F049
:1008500043BC72B601F00CFFC82000F033FB01F07E
:10086000FFFEC82000F02EFBF4E730B4002305E0C3
:1008700030F8134021F813405B1C9BB2B3EB520FCE
:10088000F6D330BC00F030BB70470000F8B5002351
:10089000009390F824201C46012A12D0012280F8EF
:1008A00024204A681F26072A0DD205686F6B521E46
:1008B00002EB82029640B7430E68964037436F635F
:1008C00019E00220F8BD05680D2A0AD22F6BD21F4D
:1008D00002EB82029640B7430E68964037432F637F
:1008E00009E0EF6A0D3A02EB82029640B7430E68C8
:1008F00096403743EF620A68072605680A2A0AD33A
:10090000EF680A3A02EB42029640B7438E6896407F
:100910003743EF6008E02F6902EB42029640B7438D
:100920008E68964037432F610A68102A01D0112A39
:1009300020D1124D0268AA4217D195682D0219D410
:10094000956845F4000595600968102912D10C4995
:100950000C4A0968B1FBF2F101EB8101490000E0AA
:10096000491E00910029FBD104E0816A41F0200179
:100970008162012380F824401846F8BD002401401C
:100980001000002040420F00704710B50446006878
:100990004168890626D50168890723D5A16AC90659
:1009A00003D4A16A41F40071A1628168C1F342419C
:1009B000072910D1217B71B9416821F020014160E4
:1009C000A06A20F48070A062A06AC00403D4A06A68
:1009D00040F00100A0622046FFF7D6FF21686FF0CB
:1009E000120008602068416809062ED50168490791
:1009F0002BD5A16AC90603D4A16A41F40051A162B2
:100A00008168C1F30231072909D04168490515D42D
:100A10008168C1F34241072910D1217B71B9416836
:100A200021F080014160A06A20F48050A062A06A99
:100A3000C00503D4A06A40F00100A0622046FFF781
:100A400023FF21686FF00C000860206841684906A8
:100A50000DD50068C0070AD0A06A40F48030A062BB
:100A6000204600F093F821686FF00100086010BD87
:100A70002DE9F0414FF00006040035467DD0A06A14
:100A8000002728B9E76284F82470204600F080F837
:100A90002046FFF735FCA16AC90600D420B1A06A40
:100AA00040F01000A06268E0A16A21F4885141F092
:100AB0000201A1626268E169237B0A4346EA4301BD
:100AC0000A43A1684FF48076B14208D0012906D0CC
:100AD000002194F814C0BCF1010F02D00AE03146A5
:100AE000F7E7F3B1A36A43F02003A362E36A43F09C
:100AF0000103E3622368D3F804C02CF4694C4CEA88
:100B0000010CC3F804C021688B68DFF874C003EAE5
:100B10000C0313438B60A168B1420BD0012909D0AB
:100B20000CE0DFF860C0A3690CEB43330B4343F4E4
:100B30000061DFE7218A0D05A5F580152168CB6AE4
:100B400023F470032B43CB62216889680E4B194054
:100B5000914208D1E762A16A21F0020141F001014E
:100B6000A162BDE8F081A06A20F0020040F0100010
:100B7000A062E06A40F00100E0620120F1E70000BD
:100B8000FDF7E1FF00E0FFFFFE0E1FFF70470000D2
:100B900070B586B000240646009401940294039434
:100BA00000681E49884236D11D49886940F40070AA
:100BB0008861886900F400700490886940F008003A
:100BC00088618869694600F008000490022000905E
:100BD00003200190134800F091F9144D1248C5E923
:100BE00000048020C5E9024040002861800068615F
:100BF0002020C5E90604284600F036F908B1FFF7C1
:100C000028FE35620022114612206E6200F0D6FAEC
:100C1000122000F0C5FA06B070BD000000240140AB
:100C200000100240000C014008000240FC050020BA
:100C300010B590F821100022022905D0042181630B
:100C400080F82020012010BD01680B6823F00E03FE
:100C50000B6001680B6823F001030B6090F84030D3
:100C6000012404FA03F1C36B596080F8214080F835
:100C70002020104610BD000010B590F8211000246F
:100C8000022903D00421816301243DE001680A6840
:100C900022F00E020A6001680A6822F001020A606E
:100CA0001A4A0168914201D1012121E0174A143208
:100CB000914201D110211BE0144A2832914201D106
:100CC000891515E0114A3C32914201D189140FE097
:100CD0000E4A5032914202D14FF4803108E00B4A63
:100CE0006432914202D14FF4801101E04FF08071E3
:100CF000064A083A5160012180F82110002180F84D
:100D00002010416B01B18847204610BD0800024009
:100D10002DE9F05FC16B0B6801680A68046C4FF045
:100D2000040C0CFA04FC4A4DDFF828A14A4E4B4F44
:100D3000DFF82CB1DFF82CE11CEA030F2DD05FEABD
:100D4000427C2AD50A68920603D40A6822F004027B
:100D50000A600168A94201D1042119E0514501D17D
:100D6000402115E0B14202D14FF4806110E0B94258
:100D700002D14FF480410BE0594502D14FF480215C
:100D800006E0714502D14FF4800101E04FF080612F
:100D90002F4A083A5160C16A3BE04FF0020808FA56
:100DA00004F818EA030F4FF000094FF0010C35D09A
:100DB0005FEA827832D50A68920605D40A6822F082
:100DC0000A020A6080F821C00168A94201D102210B
:100DD00019E0514501D1202115E0B14202D14FF473
:100DE000007110E0B94202D14FF400510BE05945B7
:100DF00002D14FF4003106E0714502D14FF40011E9
:100E000001E04FF00071124A083A516080F82090DA
:100E1000816A00291AD0BDE8F05F08470825A5407F
:100E20001D4213D0120711D50A6822F00E020A6083
:100E300090F84010C26B0CFA01F15160C0F838C054
:100E400080F821C080F82090016BE2E7BDE8F09FB8
:100E5000080002401C0002403000024044000240F2
:100E6000580002406C00024030B528B302C8134A53
:100E700014230A44B2FBF3F29200C263104A826365
:100E8000022242770B6843F6F0729343D0E90024C4
:100E90002243D0E902452C4322430469224344699A
:100EA0002243846922431A430A60002141630122DC
:100EB00042770177084630BD012030BDF8FFFDBF05
:100EC0000000024070B5044600F00CF90546601CB5
:100ED00002D004480078044400F004F9401BA0420A
:100EE000FAD370BD040000200348016941F080017D
:100EF0000161002070470000002002402DE9F84FFA
:100F0000DFF8A491002409F1040A0AF1040B234636
:100F10004FF00F080BF1040EBEE00127A7403A4046
:100F2000BA4272D1DFF884C14D68A5EB0C06654565
:100F30002BD00DDC032D34D005DC35B3012D19D0B9
:100F4000022D2FD11BE0112D16D0122D2AD119E020
:100F5000B6F5881F19D006DCB6F5803F15D0B6F57A
:100F6000801F1FD111E0B6F5001F0ED0B6F5041F8B
:100F700018D10AE0CB6815E0CB681B1D12E0CB68E6
:100F800008330FE0CB680C330CE08B682BB1012BDE
:100F90004FF0080303D0476104E0042302E0076137
:100FA00000E00023FF2A01D8064601E000F1040614
:100FB0004FEA840501D9A5F12005376808FA05FC38
:100FC00027EA0C0703FA05F547EA050737604D687D
:100FD000ED0060D5364DAE6946F00106AE61AD69F3
:100FE00024F0030605F001050095324D7719BE681F
:100FF000A5072D0F08FA05FC26EA0C06DFF8B8C095
:10100000604503D14FF0000C17E044E0DFF8ACC0BE
:10101000604502D14FF0010C0FE0DFF8A4C060453D
:1010200002D14FF0020C08E0DFF898C0604502D111
:101030004FF0030C01E04FF0040C0CFA05FC4CEAF5
:10104000060CC7F808C04D68D9F80060ED034D469E
:1010500001D5164300E096432E604D68DAF8006033
:10106000AD03554601D5164300E096432E604D680A
:10107000DBF80060ED025D4601D5164300E09643C3
:101080002E604D68DEF80060AD02754601D516434E
:1010900000E096432E60641C0A6832FA04F57FF47F
:1010A0003CAFBDE8F88F00000004014000001110C3
:1010B000001002400000014000080140000C014007
:1010C0000010014000140140C26821EA02030A40F6
:1010D00043EA0241016170470AB1016170470904A6
:1010E000FBE7000001488068704700000400002012
:1010F0000248816802781144816070470400002032
:10110000074810B5016841F010010160032000F0AC
:1011100075F8002000F006F800F024F8002010BD5B
:101120000020024070B50D4D04464FF47A712878C6
:10113000B1FBF0F00A490968B1FBF0F000F093FD53
:1011400048B9102C07D200222146501E00F036F874
:1011500000206C6070BD012070BD00000400002004
:10116000100000200C4808B5816941F0010181613F
:10117000816901F001010091C16941F08051C161B3
:10118000C069064900F080500090486820F0E06097
:1011900040F00070486008BD0010024000000140AF
:1011A000002809DB00F01F02012191404009800066
:1011B00000F1E020C0F8001170470000F0B40E4BC1
:1011C0001B68C3F30223C3F10704042C00D90424D1
:1011D0001D1D072D01D2002300E0DB1E012606FAAB
:1011E00004F56D1E0D409D409E40761E164045EA5A
:1011F0000601F0BC02F0A1B80CED00E0064A00F0D8
:10120000070110684FF6FF03184040EA0120034928
:1012100008431060704700000CED00E00000FA0584
:101220002DE9F04186B0040004D094F8A90200250D
:1012300020B108E0012006B0BDE8F08184F8A85292
:10124000204600F059F8032084F8A902206802F033
:101250006AF804F11001142288466846FEF7B4FFCC
:1012600094E80F0002F052F80227C8BB0021206862
:1012700002F060F8002101260EE001EB810004EB92
:10128000C00080F8296000F8281FC181C570056181
:101290004561491CC9B2856160688842EDD800216A
:1012A00011E001EB810004EBC00080F8695180F887
:1012B000681180F86B51C0F87851C0F87C51491C16
:1012C000C9B2C0F8805160688842EAD81422414609
:1012D0006846FEF779FF94E80F0002F01BF810B1A2
:1012E00084F8A972A6E784F8245084F8A9622068DB
:1012F00002F00EF800209EE708B500680649884213
:1013000008D10648C16941F40001C161C06900F417
:101310000000009008BD0000005C0040001002408A
:101320002DE9F84304460078344FC00752D0F869DD
:101330000025C00008D4F86940F08050F861F869D1
:10134000012500F0805000902D480168C90511D496
:101350000168804641F480710160FFF7C3FE0646D4
:1013600004E0FFF7BFFE801B642822D8D8F80000F5
:10137000C005F6D5386A10F4407020D0A18801F479
:10138000407181421BD0386A1E49012220F440700E
:101390000A6000220A603862C00710D0FFF7A2FE80
:1013A000064641F2883807E0FFF79CFE811B414565
:1013B00002D90320BDE8F883386A8007F4D5386A7B
:1013C000616820F44070084338621DB1F86920F06C
:1013D0008050F8612078800705D57868A16820F4EE
:1013E0004040084378602078C00605D57868E168F9
:1013F00020F48000084378600020DBE70010024002
:1014000000700040400442422DE9F0470D460400C0
:1014100067D0DFF81881D8F8000000F00700A84274
:101420000CD2D8F8001021F007012943C8F80010A9
:10143000D8F8000000F00700A84252D120683C4EC6
:10144000810712D5400703D5706840F4E0607060F2
:101450002078000703D5706840F4605070607068B1
:10146000A16820F0F000084370602078C00727D002
:101470006068012810D03168022810D0890700293F
:101480002FDA716821F0030101437160FFF72AFE32
:10149000074641F288390CE031688903EFE789019A
:1014A000EDE7FFF71FFEC11B494502D90320BDE848
:1014B000F0877068616800F00C00B0EB810FF0D12C
:1014C000D8F80010404601F00701A9420BD9016885
:1014D00021F0070129430160006800F00700A842DD
:1014E00001D00120E3E72078400705D57068E16866
:1014F00020F4E060084370602078000706D570682B
:10150000216920F4605040EAC100706000F038F8B2
:101510007168084AC1F30311515CC840064908606C
:1015200006480068FFF7FEFD0020C0E700200240EB
:10153000001002400A4500081000002008000020AA
:101540000448054900684968044AC1F30221515C16
:10155000C840704710000020001002401A450008E3
:101560000448054900684968044AC1F3C221515C36
:10157000C840704710000020001002401A450008C3
:1015800012A085B00FC88DE80F0014A0144B00689E
:1015900004905968134801F00C02042A10D0082A5C
:1015A0000ED1C1F38342C9031DF802000AD5596860
:1015B00004AAC1F34041515C0A4A5043B0FBF1F028
:1015C00005B0704708494843FAE7000002030405E4
:1015D000060708090A0B0C0D0E0F1010010200007F
:1015E0000010024000127A0000093D002DE9F84F7A
:1015F00004006FD02078BE4DC00747D06868C0F3A4
:101600008100012807D06868C0F38100022809D151
:101610006868C00306D52868800337D5606800284D
:10162000E7D033E06068B0F5803F0BD010B1B0F583
:10163000A02F11D0286820F480302860286820F47A
:10164000802002E0286840F480302860606888B11B
:10165000FFF748FD064609E0286840F4802028602E
:10166000F0E7FFF73FFD801B642873D828688003EC
:10167000F7D50BE0FFF736FD064604E0FFF732FD35
:10168000801B6428F1D828688003F7D42078DFF81D
:10169000648280074FF0010A4FF0000939D568686D
:1016A00010F00C0F07D06868C0F38100022809D140
:1016B0006868C00306D42868800714D5206901280B
:1016C00008D110E02069B0B1C8F800A0FFF70AFD0A
:1016D000064605E007E1FFF705FD801B0228C4D898
:1016E00028688007F7D52868616920F0F80040EA8B
:1016F000C10028600DE0C8F80090FFF7F3FC064633
:1017000004E0FFF7EFFC801B022823D8286880073D
:10171000F7D4207800072CD57748A169D9B1C0F853
:1017200000A0FFF7DFFC064604E0FFF7DBFC801BB0
:1017300002280FD8686A8007F7D570484FF4FA512D
:101740000068B0FBF1F0009000BF0098411E0091CE
:10175000FAD20EE07CE0C0F80090FFF7C3FC06462A
:1017600004E0FFF7BFFC801B022871D8686A80077D
:10177000F7D4207840075BD5E8690027C00008D47B
:10178000E86940F08050E861E869012700F0805086
:1017900000905B480168C90511D40168834641F493
:1017A00080710160FFF79EFC064604E0FFF79AFC9B
:1017B000801B64284CD8DBF80000C005F6D5E06833
:1017C00001280AD008B1052813D0286A20F00100AA
:1017D0002862286A20F0040002E0286A40F0010034
:1017E0002862E06841F2883B88B1FFF77BFC06463F
:1017F00009E0286A40F004002862EEE7FFF772FC77
:10180000811B59455BD8286A8007F7D50BE0FFF7A5
:1018100069FC064604E0FFF765FC811B59454ED87C
:10182000286A8007F7D41FB1E86920F08050E8618A
:10183000E069A8B36968C1F38101022946D0022892
:10184000484606D0C8F86000FFF74CFC044639E073
:1018500035E04746C8F86000FFF744FC064604E060
:10186000FFF740FC801B022829D828688001F7D4A4
:10187000206AB0F5803F05D16868A16820F4003087
:1018800008436860D4E908010843696821F47411C9
:1018900008436860C7F860A0FFF724FC044605E031
:1018A00023E0FFF71FFC001B022808D828688001EE
:1018B000F7D51AE0FFF716FC001B022802D9032017
:1018C000BDE8F88F28688001F4D40EE00128F7D035
:1018D0006868226A00F48031914204D1616A00F4A0
:1018E0007010884201D00120EAE70020E8E70000FC
:1018F00000100240000042428004424210000020DA
:101900000070004090F85100704770B5040009D095
:10191000606A002540B125616561A56294F85100B7
:1019200040B10CE0012070BD6068B0F5827FF4D05A
:10193000E561F2E784F85050204600F03FF80220BD
:1019400084F851002068016821F040010160A088FE
:10195000218900F4827001F404410843A18901F453
:1019600000610843217C01F002010843217D01F060
:1019700001010843218B01F400710843217F01F02C
:101980003801084394F8201001F080010843218DAC
:1019900001F40051084321680860A069042101EAAC
:1019A0001040216848602068C16921F40061C1616C
:1019B0006565012084F85100002070BD70B586B0C7
:1019C0000024009401940294039400682A4E2B4949
:1019D000022203232A4DB04228D1886940F4805066
:1019E0008861886900F480500490886940F008009C
:1019F00088618869694600F0080004902820CDE9D4
:101A0000000203932846FFF779FA1020CDE900047D
:101A1000694628460294FFF771FA1A49486840F06F
:101A2000E06040F00100486006B070BD164EB04264
:101A3000FAD1C86940F48040C861C86900F48040A8
:101A40000490886940F0080088618869694600F060
:101A5000080004904FF42040CDE90002039328468B
:101A6000FFF74CFA3014CDE9000469462846029489
:101A7000FFF744FAD8E700000030014000100240B0
:101A8000000C014000000140003800402DE9F84FF3
:101A9000044690F8500001250A9E1F4692468B4648
:101AA0004FF0000801280ED0012084F85000FFF705
:101AB00019FB814694F85100616801280CD0B1F5FA
:101AC000827F07D102E00220BDE8F88FA16809B942
:101AD000042801D00220B6E0BBF1000F27D0BAF1F4
:101AE000000F24D01FB394F85100042802D0052021
:101AF00084F8510000206065C4F838A0E787A78704
:101B0000C4F830B0E786A786206460642068016866
:101B1000490603D4016841F040010160E068B0F576
:101B2000006F606805D0E8B3012F43D079E0012051
:101B300089E008B1012F34D1206B21680088C8608A
:101B4000206B801C2063E08E401EE08629E0206828
:101B5000816889070DD5E18E59B1012D09D1216B1D
:101B60000988C160206B801C2063E08E401EE086E7
:101B7000002520688168C9070BD0E18F49B1C06892
:101B8000A16B0880A06B801CA063E08F401EE087E3
:101B90000125FFF7A7FAA0EB0900B04201D3701CA2
:101BA00050D100E006E0E08E0028D0D1E08F002880
:101BB000CDD13CE0206B216800780873206B401C7D
:101BC0002063E08E401EE0862BE020688168890754
:101BD0000DD5E18E59B1012D09D1216B0978017321
:101BE000206B401C2063E08E401EE08600252068AC
:101BF0008168C9070BD0E18F49B1C068A16B08703B
:101C0000A06B401CA063E08F401EE0870125FFF71A
:101C100069FAA0EB0900B04202D3701C01D011E0B8
:101C200086B1E08E0028D0D1E08F0028CDD14A4681
:101C30003146204601F03CF838B120204FF0010831
:101C4000606508E00320804605E0A06818B92068B8
:101C5000C16880680090012084F85100002084F859
:101C60005000404630E710B5401EB0F1807F01D3F0
:101C7000012010BD4FF0E02460610F21601701F0DA
:101C80005CFB0020A06107202061002010BD704790
:101C90007047000070B590F83C20012A26D001253D
:101CA00080F83C50022280F83D2002685368946816
:101CB00023F070060B68334353600D4B02689A4261
:101CC00008D0B2F1804F05D00A4B9A4202D00A4B9D
:101CD0009A4204D1496824F080031943916080F846
:101CE0003D50002180F83C10084670BD022070BDB8
:101CF000002C0140000400400008004010B5040022
:101D000003D094F83D0010B107E0012010BD002081
:101D100084F83C00204600F01FF8022084F83D00C3
:101D2000211D206801F0F4F8012084F8460084F8B1
:101D30003E0084F83F0084F8400084F8410084F8B5
:101D4000420084F8430084F8440084F8450084F895
:101D50003D00002010BD000008B500681F4A204962
:101D600090420ED1886940F4006088618869002241
:101D700000F40060009011461920FFF71FFA1920A7
:101D80001BE0B0F1804F0AD0164A904219D1C869C1
:101D900040F00200C861C86900F002001BE0C86999
:101DA00040F00100C861C869002200F00100009005
:101DB00011461C20FFF702FA1C20BDE80840FFF77F
:101DC000EFB9094A904207D1C86940F00400C861E0
:101DD000C86900F00400009008BD0000002C01401C
:101DE00000100240000400400008004090F83D1040
:101DF000012901D001207047022180F83D100168BF
:101E0000CA6842F00102CA6000680B49884208D0E3
:101E1000B0F1804F05D00949884202D00849884274
:101E200004D1816801F00701062903D0016841F05F
:101E30000101016000207047002C014000040040B7
:101E40000008004070B5044690F83C00012817D007
:101E5000012584F83C50022084F83D002068826807
:101E600022F0770222F47F4282600868502830D046
:101E70000DDC20284DD005DC98B310283BD148E07C
:101E8000022070BD302844D0402834D139E0602889
:101E900028D0702806D0B0F5805F2CD0B0F5005F58
:101EA00029D10AE0CB68D1E90121206801F073F85B
:101EB0002068816841F0770109E0CB68D1E9012110
:101EC000206801F068F82068816841F480418160F1
:101ED00011E0CA684968206801F018F950212068AB
:101EE00007E016E0CA684968206801F020F960211F
:101EF000206801F05AF884F83D50002084F83C0036
:101F000070BDCA684968206801F000F94021206866
:101F1000EFE7226801461046EBE7704770B50446CC
:101F2000006801694FF00005C943890715D4C168ED
:101F3000C943890711D4E91E016101202077206877
:101F400080698007204602D0FFF7E7FF04E000F039
:101F5000D7F8204600F066F9257720680169C94363
:101F6000490717D4C168C943490713D46FF0040166
:101F70000161022020772068806910F4407F2046AC
:101F800002D0FFF7CAFF04E000F0BAF8204600F0E4
:101F900049F9257720680169C943090716D4C16842
:101FA000C943090712D46FF00801016104202077AA
:101FB0002068C0698007204602D0FFF7AEFF04E02A
:101FC00000F09EF8204600F02DF925772068016981
:101FD000C943C90617D4C168C943C90613D46FF0F1
:101FE00010010161082020772068C06910F4407F4B
:101FF000204602D0FFF791FF04E000F081F8204670
:1020000000F010F9257720680169C943C90708D194
:10201000C168C943C90704D1891E0161204600F087
:1020200053F920680169C943090609D4C168C94345
:10203000090605D46FF0800101612046FFF727FEF5
:1020400020680169C943490609D4C168C9434906E2
:1020500005D46FF040010161204600F04FF920687F
:102060000169C94389060BD4C168C943890607D4ED
:102070006FF0200101612046BDE87040FFF708BE07
:1020800070BD000010B586B0002100910191029151
:1020900003910068154C164902220323A0420ED179
:1020A000886940F0040088618869694600F004008E
:1020B0000490C020CDE9000203930E4811E00E4CBD
:1020C000A04210D1886940F008008861886969469B
:1020D00000F0080004904FF47070CDE90002039303
:1020E0000648FEF70BFF06B010BD000000040040DC
:1020F000001002400008014000080040000C0140B0
:10210000704770B5044690F83C000D4601280AD08F
:10211000012084F83C0042B1042A18D0082A2AD0B1
:102120000C2A4DD139E0022070BD206800F046FF36
:102130002068816941F0080181612068816921F08E
:1021400004018161206881692A69114311E02068D6
:1021500000F060FF2068816941F4006181612068BE
:10216000816921F480618161206881692A6941EA7D
:102170000221816124E0206800F07AFF2068C169B3
:1021800041F00801C1612068C16921F00401C16109
:102190002068C1692A69114311E0206800F094FFAA
:1021A0002068C16941F40061C1612068C16921F4FE
:1021B0008061C1612068C1692A6941EA0221C16167
:1021C000002084F83C0070BD10B5040003D094F8E2
:1021D0003D0010B107E0012010BD002084F83C0054
:1021E000204600F01EF8022084F83D00211D2068E2
:1021F00000F08EFE012084F8460084F83E0084F84A
:102200003F0084F8400084F8410084F8420084F8DC
:10221000430084F8440084F8450084F83D00002021
:1022200010BD70477047000010B5044649B104293D
:102230000AD008290BD094F8410001280AD00120C7
:1022400010BD94F83E00F8E794F83F00F5E794F8E5
:102250004000F2E7022041B3042929D008292AD0FE
:1022600084F841000122206800F088FE13492068AC
:10227000884203D1426C42F40042426420688842A2
:1022800008D0B0F1804F05D00D49884202D00D49E9
:10229000884204D1816801F00701062903D0016852
:1022A00041F001010160002010BD84F83E00D9E733
:1022B00084F83F00D6E784F84000D3E7002C0140C3
:1022C000000400400008004010B504460068B0F16A
:1022D000804F02D1064800F08BFC064920688842F6
:1022E00005D14114BDE810400348FEF7EDBE10BD16
:1022F00028000020002C014000100140704770476A
:1023000070470000F8B5026804461068D168536948
:1023100010F00F0F4FF0000553D003F0010601F449
:10232000907737435FD0C20705D0CA0503D5226C2A
:1023300042F001022264420705D5DA0703D0226C7D
:1023400042F002022264820705D5DA0703D0226C2C
:1023500042F004022264020707D501F02002324352
:1023600003D0226C42F008022264226C002A34D08E
:10237000800604D5880602D5204600F00AFF2068B2
:102380004069216CC0F38010090700D430B32046A7
:1023900000F0E7FE2068416949061BD5416921F03C
:1023A00040014161A06BA8B158494163A06BFEF7A1
:1023B00063FC002811D0A06B416B01B0BDE8F04078
:1023C000084783060FD58B060DD52046BDE8F8409B
:1023D00000F0DFBE2046FFF793FFF8BD2046FFF771
:1023E0008FFF2564F8BD266B2023012E52D1C6062F
:1023F00050D5CE064ED51068506800905069400602
:102400002AD5A16B086840680004000CEAD0A68DAC
:102410008642E7D9E0858869202818D0D06820F462
:102420008070D0602068416921F00101416120681D
:10243000416921F04001416184F83E302563206804
:10244000C16821F01001C160A06BFEF7F1FBA08D07
:10245000E18D401A81B219E0A08DE18D401A81B260
:10246000E08D0028BED00029BCD0D06820F4907048
:10247000D0602068426922F00102426184F83E3057
:1024800025632068C26822F01002C2602046FFF770
:1024900036FFF8BD05062BD50D0629D594F83D006D
:1024A0002128F6D1A068B0F5805F01D12069B0B1D4
:1024B000206A411C2162216800784860E08C401E3F
:1024C0000004000CE084E4D12068C16821F08001A0
:1024D000C1602068C16841F04001C160F8BD206A58
:1024E0000088C0F308005060206A801C2062E5E785
:1024F0004006F3D54806F1D5D168204621F04001C9
:10250000D16084F83D3000F0A8F8F8BD53310008E0
:1025100070B5040004D094F83D00002510B106E029
:10252000012070BD84F83C50204600F023F82420A0
:1025300084F83D002068C16821F40051C160204644
:1025400000F082FE2068016921F490410161206859
:10255000416921F02A0141612068C16841F40051BC
:10256000C1602564202084F83D0084F83E000020EE
:1025700070BD00002DE9F04186B0002504460095AD
:1025800001950295039500682D49884255D12D4843
:10259000816941F480418161816901F48041049144
:1025A000816941F0040181618069274E00F00400D7
:1025B00004904FF4007000900220019003200390DB
:1025C00069463046FEF79AFC3015CDE900056946AC
:1025D00030460295FEF792FC1D4E1C484FF08008D5
:1025E00001C61020A6E82101202746F810591848F6
:1025F000C6E90557F561FEF737FC08B1FEF729F982
:10260000666374621148134E1430C6E90005C6E9CA
:1026100002583561C6E905573046F561FEF724FCDE
:1026200008B1FEF716F9A663002211462520746250
:10263000FEF7C4FD2520FEF7B3FD06B0BDE8F0812E
:1026400000380140001002400008014044000240F0
:10265000400600208406002070477047FEE7000017
:10266000012251030148FEF737BD00000010014070
:1026700000224FF400510148FEF72EBD001001402A
:102680003EB5002410480094019402940D498460E2
:10269000016001250573047505614FF460214460F4
:1026A000C161FEF7E5F948B90920CDE900056946A1
:1026B00002940548FEF7EAF8002801D0FEF7C9F8B1
:1026C0003EBD000000240140CC0000202DE9F04F69
:1026D00085B00024424800940194029403948169D7
:1026E00041F010018161816901F01001049181695B
:1026F00041F020018161816901F02001049181692B
:1027000041F004018161816901F004010491816952
:1027100041F0080181618069DFF8C89000F008008D
:102720004FF400550490002229464846FEF7D4FC99
:10273000DFF8B4A04FF4A057002239465046FEF708
:10274000CBFCDFF8A8B04FF40048002241465846C1
:10275000FEF7C2FC0095022601250396CDE901543F
:1027600069464846FEF7CAFB4FF44040CDE90004F5
:10277000694648460294FEF7C1FB40F23F10CDE99E
:102780000004694658460294FEF7B8FBCDE90054B0
:10279000694650460294FEF7B1FB0320CDE9006084
:1027A00069465046FEF7AAFB00970396CDE901540F
:1027B00069465046FEF7A2FBE8028DE83100694603
:1027C0005046FEF79BFBCDF800800396CDE90154FF
:1027D00069465846FEF792FB05B0BDE8F08F000051
:1027E0000010024000100140000C014000080140B0
:1027F000104810B50E4901604FF48271416000210C
:102800004FF40062C0E902120122C0E90412520230
:1028100082610822C0E90721416281620A21C16206
:10282000FFF773F8002801D0FEF713F810BD000081
:1028300000300140FC0000200F4810B50D49016038
:102840004FF48271416000214FF40062C0E902122E
:102850000122C0E904125202C0E90621016241626C
:1028600081620A21C162FFF750F8002801D0FDF70C
:10287000F0FF10BD003800405401002010B586B0B4
:10288000002416480094019402940394049412497D
:102890000594016042F21071C0E901144FF46161C6
:1028A000C0E9031444618461FFF728FA78B94FF452
:1028B0008050009069460948FFF7C4FA38B904947B
:1028C00004A906480594FFF7E5F9002801D0FDF7B3
:1028D000C0FF06B010BD0000002C0140AC0100207C
:1028E00010B586B000241448009401940294039417
:1028F00004944FF080410594C0E900144FF4E15175
:10290000C0E9024104618461FFF7F8F978B94FF436
:102910008050009069460848FFF794FA38B904944B
:1029200004A905480594FFF7B5F9002801D0FDF783
:1029300090FF06B010BD0000F401002010B58EB06D
:1029400000240794089409940A940B941C21684667
:102950000C94FDF76BFC1E481C49C0E900142021B3
:10296000816040F6C411C0E903148461FFF7C6F921
:1029700028BB4FF48050079007A91548FFF762FA6B
:10298000E8B91348FFF720FCC8B90B940BA910480D
:102990000C94FFF77FF990B96020CDE90004022084
:1029A00002900022694604940948FFF7AAFB30B957
:1029B0000422694606480294FFF7A3FB08B1FDF71D
:1029C00048FF0348FFF75EFB0EB010BD0004004057
:1029D0003C02002030B58DB000240794089409947F
:1029E0000A940B941C2168460C94FDF71FFC2548A3
:1029F0002349C0E900142021816040F6C411C0E9D8
:102A000003148461FFF77AF990BB4FF4805007906C
:102A100007A91C48FFF716FA50BB1A48FFF7D4FB6A
:102A200030BB0B940BA917480C94FFF733F9F8B996
:102A3000602002258DE83100002269461148049487
:102A4000FFF75FFBA0B9042269460E480294FFF726
:102A500058FB68B9082269460A480295FFF751FBFE
:102A600030B90C22694607480294FFF74AFB08B1C7
:102A7000FDF7EFFE0348FFF705FB0DB030BD00008A
:102A80000008004084020020FEE7FEE72DE9F04147
:102A90000446406801682068006801F023FC01F0EA
:102AA0009DFA00B201F0B6FA0546A06201F034F9D1
:102AB00006464948854202DD0022484B07E0484867
:102AC0004FF00002854201D9464B00E0002330461A
:102AD00000F01EFD00F0EAFCA062E56A0646294609
:102AE00001F000FCE16801F0F5FAA06329463046E8
:102AF00001F03EF901F010F907468846208B00F0FE
:102B00000FFF05460E46206901F006F94FF0FF322F
:102B100001F08FFC2A46334600F016FF3A46434642
:102B200000F012FF00F0C2FCE063216A01F09EFB9E
:102B300001D2206A05E0E169E06B01F097FA01D269
:102B4000E069E0630121E06A01F0A1FCA16A01F003
:102B5000BEFB216B01F00CF90546208B01F072FAE7
:102B60000146606901F078F9294601F0B3FA05469B
:102B70002064D4E90D0101F0FBF8E16B01F0F8F8F5
:102B8000294601F0F5F8A1680860A068216A00688C
:102B900001F06CFB01D2206A06E0A068E1690068E0
:102BA00001F064FA02D2E069A1680860E06A20637B
:102BB000A06AE062A0680168616394F8241019B902
:102BC000016881F000410160A4682068064901F0B5
:102BD00043F92060BDE8F08100003443008076C0F6
:102BE000000034C3008076400000C84270470000F7
:102BF0002DE9F0410446806DFDF7C4FB6065616C12
:102C000001F070FBE16C01F027F9054601F0E6F9EF
:102C100001F000FA294601F05AFB224E314601F03C
:102C200059FA074601F078F81F4D4FF00002AF4205
:102C300001D31E4B00E0002300F06AFC00F036FCDC
:102C400007466068A846404501D2012000E0002008
:102C50002081208901280CD05A2001F0DBF9394667
:102C600001F086F805464FF4B477B04204DB3846ED
:102C700003E06FF05900F0E7002001F0E3F90646A9
:102C8000454500D20027384601F0DCF9294601F01D
:102C90006FF8314601F026FB20602046BDE8F04188
:102CA00000F074B80000B4430000808000807640DB
:102CB00038B50B46009204460022802100F008F847
:102CC000002804D0606D40F020006065032038BD0E
:102CD0002DE9F8431E46914688460446089DFEF7B6
:102CE00001FA401B351AFEF7FDF907462548006832
:102CF000C0F3CB30684338E0701C37D0FEF7F2F9F0
:102D0000C01BA84203D215B1009860B32CE0206824
:102D1000416821F0E00141606068B0F5827F0BD12D
:102D2000A068B0F5004F02D0B0F5806F04D12068E4
:102D3000016821F040010160A06AB0F5005F09D18F
:102D40002068016821F4005101602068016841F4A5
:102D500000510160012084F85100002084F85000E7
:102D60000320BDE8F8830025401E0090206881689C
:102D700038EA010004D000204845BDD10020F0E72A
:102D80000120F9E7100000207047000070B50168CD
:102D90000446354811F1FF4F03D22168814200DA21
:102DA000012522683149824203DB2068884200DA2B
:102DB000022522682E488A4203DB2168814200DA1C
:102DC000032522682B49824203DB2068884200DA0F
:102DD0000425226828488A4203DB2168814200DA00
:102DE00005252168814204DB20682449884200DAF5
:102DF0000625E06A01F026F9616801F06BF901F03F
:102E0000EDF8002800DA4042024604F10C000346C7
:102E1000FDF7F4FC0020072D20D2DFE805F01F04A9
:102E20001B16100C0800E286208762870AE0E08605
:102E3000208762870CE0E086228762870DE0E086CB
:102E400022876087A4F8400008E0E2862287608736
:102E5000A08703E0E28620876087E087BDE87040B6
:102E60001846FDF7D8BB0000000070420000F04299
:102E70000000344300007043000096430000B44358
:102E8000FEF736B930B593B028216846FDF7CEF984
:102E900014210AA8FDF7CAF9002401200F94109408
:102EA0001194010412948DE8130004904FF4E01083
:102EB000CDE90810022507956846FEF797FBA8B9EB
:102EC0000F20CDE90A056802CDE90C4002210AA8CD
:102ED0000E94FEF799FA48B912200F90A803CDE995
:102EE00011040FA8FEF71CFA002801D0FDF7B1FC71
:102EF00013B030BD704700000148FFF70FB8000065
:102F0000AC0100200148FFF709B80000F4010020DF
:102F1000F0B50268164C174D174E4FF08047A0428F
:102F200005D0B84203D0A84201D0B04203D122F06C
:102F300070034A681A43A04205D0B84203D0A842A1
:102F400001D0B04203D122F44073CA681A434B69DE
:102F500022F080021A4302608A68C2620A688262B2
:102F6000A04201D10969016301214161F0BD000066
:102F7000002C0140000400400008004010B501F0A2
:102F80001F010123046A8B409C430462036A8A4048
:102F90001343036210BD10B5846842EA032224F48F
:102FA0007F440A432243826010BD826822F070028F
:102FB0000A4342F0070181607047000030B5026AA1
:102FC00022F001020262036A4268846924F07305F8
:102FD0000C682C4323F002058B682B430C4DA84250
:102FE00006D123F00805CB6843EA050323F0040368
:102FF00007D14D6922F4407245EA02058A6942EA26
:1030000005024260846149684163036230BD00008B
:10301000002C014030B5026A22F010020262026AFE
:10302000436884690D6824F4E64444EA05248D6805
:1030300022F0200242EA05120C4DA84206D1CD68CA
:1030400022F0800242EA051222F0400207D14D69C7
:1030500023F4406343EA85038D6943EA85034360B3
:10306000846149688163026230BD0000002C014028
:1030700030B5026A22F480720262036A4268C4694F
:1030800023F4007324F073050C682C438D6843EA25
:1030900005230C4DA84206D1CD6823F4006343EA12
:1030A000052323F4806307D14D6922F4405242EA9C
:1030B00005128D6942EA05124260C4614968C16324
:1030C000036230BD002C014030B5026A22F4805208
:1030D0000262036A4268C4690D6824F4E64444EA63
:1030E00005248D6823F4005343EA0533064DA842B6
:1030F00004D14D6922F4804242EA85124260C461E3
:1031000049680164036230BD002C014010B5046AB7
:10311000036A23F001030362836923F0F00343EAA7
:10312000021324F00A020A438361026210BD10B543
:10313000036A23F0100303628469036A24F4704471
:1031400044EA023223F0A00343EA011182610162E2
:1031500010BD10B5406A0021C185C184FFF7D0F8C9
:1031600010BD0168CA6822F49072CA6001684A6999
:1031700022F001024A61016B012904D10168CA6889
:1031800022F01002CA60202180F83E100021016365
:10319000704708B590F83E10222901D0022008BDE2
:1031A00081684FF48053994201D1026922B1826A49
:1031B00099421BD049B10AE00268816A5268C2F3A1
:1031C00008020A80816A891C08E0016971B10168FE
:1031D000496801F07F011170816A491C8162C18DCB
:1031E000491E0904090CC18503D019E0016849682A
:1031F000F1E70168CA6822F02002CA600168CA6863
:1032000022F48072CA6001684A6922F001024A61B0
:10321000202180F83E10016B012903D0FFF71CFA32
:10322000002008BD002101630168CA6822F0100275
:10323000CA6001680A68D20602D50A684968009126
:10324000818DFFF75CF8EBE770B504460068016913
:10325000E26821F4405111430161A16820690143F2
:10326000606901432068C26841F20C639A430A43D3
:10327000C26020684169A26921F440711143416133
:103280001E492068884202D1FEF76AF901E0FEF784
:1032900057F900EBC00101EB001160686422800067
:1032A000B1FBF0F3B3FBF2F36FF018067343B1FB1D
:1032B000F0F5B1FBF0F605EB8305322303EB0515C2
:1032C000B5FBF2F5B6FBF2F605F0F00505EB0615D9
:1032D000B1FBF0F6B1FBF0F0B0FBF2F06FF01801CB
:1032E000484306EB800003EB0010B0FBF2F02168CE
:1032F00000F00F002844886070BD000000380140D5
:103300000148FEF7FFBF0000CC02002000207047FC
:1033100000207047012120F8401F0021018081809A
:1033200001820846704730F8401F21F43F41018078
:103330000020704700207047FEE70907090E0028AB
:1033400004DB00F1E02080F80014704700F00F006B
:1033500000F1E02080F8141D7047002101E0491CB5
:1033600089B28142FBD3704708B5FDF7C9FEFFF76C
:1033700089FDFFF7ABF9FFF7E1FAFFF72BFBFFF74A
:103380007FF9FFF735FAFFF757FA3C483A4900242E
:1033900001604FF4E131C0E901140C21C460C0E9BF
:1033A00004418461C461FFF7B3F870BB34484169DC
:1033B00041F0010141614069002200F001000090EC
:1033C00011460B20FDF7FAFE0B20FDF7E9FE002267
:1033D00011460E20FDF7F2FE0E20FDF7E1FE002261
:1033E00011460F20FDF7EAFE0F20FDF7D9FE234816
:1033F000244944300160082141608461C461022194
:1034000004628160FDF70CFF08B1FDF722FAFFF7B7
:1034100067FAFFF733FAFFF723F91B49A1F59C7010
:1034200001604FF48051818018498160FCF7BCFF36
:10343000FDF780F814485830FEF7D8FC1248A03049
:10344000FEF7D4FC0120FDF73DFD114D1149686DDB
:103450000860FFF70DF9FDF745FE044605F160062B
:10346000FDF740FEB5F87810001B8842F8D93046C9
:10347000FFF70CFBF4E7000000380140CC0200200D
:1034800000100240005C004054010020000C01408C
:103490002800002000000020002101E041404008F9
:1034A0000028FBD101F001007047000021F000422C
:1034B000A2F16052B2F5801F01F0004328BFD2F1A3
:1034C0007F6C0BD95FEA001C43EAC20242EB5070EA
:1034D00018BF704728BF20F001007047B2F5801F69
:1034E000BCBF184670474FEA410C1CF5001F02D2C2
:1034F000084600F0B6BE70B500F0D0FA00000089B2
:10350000FFF7F6BF4FF00040A0F5800070470000C5
:1035100010B591EA030F48BF83F0004300F11A830E
:10352000841A71EB030C05D2121943EB0C03001B38
:1035300061EB0C01DFF824E14FEA1154A4EB135CBA
:103540001EEA430F18BF9EEA445F73D023EA0E03BE
:10355000DCF1200E21EA045143F4801332D322FA25
:103560000CFE10EB0E0023FA0CFE41EB0E01CCF129
:10357000200E03FA0EFE10EB0E0051F10001B1F522
:10358000801FCCF1200E32D201EB045112FA0EF260
:10359000BDE8104058BF7047401C38BF5FEA420288
:1035A00018BF7047002814BF20F0010041F100014E
:1035B0004FEA410313F5001F38BF7047A1F1C04126
:1035C00000F0BABA012A43EB0302ACF1200CDCF1A3
:1035D0001F0E32BF4FF0000E23FA0CF310EB030066
:1035E00041EB0451B4EB115FD0D0A1EB045101F5D4
:1035F000801149085FEA300001EB04510ED350F10D
:10360000000038BF12FA0EFE08D1BDE81040C9E72D
:10361000401C38BF5FEA4202CAD1C3E7BDE8104090
:103620004FEA410313F5001F38BF7047A1F1C041B5
:1036300000F082BA9EEA445F08D011EA5E0FBDE84E
:10364000104004BF01F0004100207047BDE8104069
:1036500070B500F023FA00BF64FBBE3E0000E0FF3F
:1036600002494FF0000000F0B2BE00BF0000F87F3A
:103670002DE9C04130B4DFF8A0C23CEA111418BFF4
:103680003CEA131400F0EC8081EA03051CEA1114F3
:1036900044EAD57418BF1CEA131500F0C780A4EBE8
:1036A00005044FF0004545EAC12145EAC32341EA3C
:1036B000505143EA525304F17F74994204F50034A7
:1036C0004FEAC0204FEAC22208BF904200F09C801F
:1036D0004FEA13650FF24016765D4FEA134506FB7D
:1036E00005F7C7F1807706FB07F74FEAD737A7FB47
:1036F00003687642C8F58038A7FB06CE38BFA8F12C
:10370000010807FB08E64FF0000EA6FB028CE6FB63
:1037100003CEDCF1000CCEF1004E38BFAEF1010E4D
:10372000A6FB0C584FF000074FF00005E6FB0E8794
:10373000A1FB08C6A0FB07CE16EB0E0645F100055F
:10374000E1FB076515F1E04E7EBFA4F580345FEA2A
:1037500046066D4116F1800745F100054FEA17272F
:103760004FEA066647EA0567A6F1DE46B6F1805FD6
:103770004FEA15251FD9384624F0010C05EBC4711A
:10378000BCF1FE6F01EB0C1102D8F0BCBDE800816A
:1037900024425CBF01F5801E9EEAC47F02D4F0BCC7
:1037A000BDE80081244238D4F0BCA1F1C041BDE89D
:1037B000004100F0C1B94FEAD22242EA43524FEA37
:1037C000D323A7FB02864FEAD02040EA415007FBF3
:1037D00003661EEA0E0F4FEAD12105FB026658BFB1
:1037E000A6EB0056B6EB00564FEA520E4EEAC37EE9
:1037F00018EB0E0E56EB530EBDD518EB02085E41CA
:103800007F1C55F10005B6E74FF480154FF0000717
:103810004FF000064FF00008ADE7F0BC4FF000009D
:1038200001F1C04101F00041BDE8008111EA0C1F27
:103830000CEA131500D00CE013EA0C1F00F02580F1
:103840004FF00000F0BC81EA030101F00041BDE847
:103850000081F0BCBDE8004181EA030100F06CB9D1
:10386000F0BCBDE8004170B500F018F9097EFC3EDF
:1038700000F007B881EA03014FF0000001F00041B9
:10388000704781EA030100F057B9F0BCBDE8004180
:103890004FF0000021497047FFFDFBF9F7F5F4F206
:1038A000F0EEEDEBE9E8E6E4E3E1E0DEDDDBDAD8DB
:1038B000D7D5D4D3D1D0CFCDCCCBCAC8C7C6C5C439
:1038C000C2C1C0BFBEBDBCBBBAB9B8B7B6B5B4B350
:1038D000B2B1B0AFAEADACABAAA9A8A8A7A6A5A43B
:1038E000A3A3A2A1A09F9F9E9D9C9C9B9A999998FF
:1038F0009797969595949393929191908F8F8E8EA2
:103900008D8C8C8B8B8A898988888787868585842E
:1039100084838382828181800000FF070000F87F1A
:10392000B0FA80F310FA03F10AD0C3F11D0303F5D6
:1039300080634FEA41504FEA035202EBD1217047B6
:103940004FF0000070470000DFF848C170B51CEA76
:10395000111E1EBF1CEA13159EEA0C0F95EA0C0FF0
:1039600000F06F8081EA030423EA4C134EEAD47E10
:1039700021EA4C1141F4801143F48013AE44A1FBC1
:10398000024CA0FB0365AEF17F7E361955EB0C05AA
:10399000A1FB034C4CF10003A0FB021C16EB0C0630
:1039A000654153F10003094218BF46F0010613F4C4
:1039B000007F0BD14FEA03314FEA0530340341EA6F
:1039C000155140EA16506FF003020AE04FEAC32196
:1039D0004FEAC520F40241EA555140EA56506FF0D3
:1039E000020202EB2E4201EB025585EACE710AD0AB
:1039F0005FEA440C18BF24F0004450F1000041F18C
:103A0000000120EAD47040F2FE7C624500D270BD15
:103A1000A84214BF4FF080444FF04044002E08BF2E
:103A20000024BEF1806FA8BFA1F1C041BDE8704085
:103A300080F282804FF0000001F1C04101F00041AE
:103A400070479EEA0C0F0CEA131518BF95EA0C0F8D
:103A500006D04FF0000081EA030E0EF0004170BD69
:103A600000F01CF88900013E00F007B800F009B82A
:103A70004FEA430C5FEA5C5C08D081EA030100F086
:103A80005BB84FEA410C5FEA5C5CF6D14FF0000096
:103A9000014970470000FF070000F87F0EF1020E99
:103AA0002EF0030E5EF8046B364205D4012A43EB78
:103AB000030515F5001F12D8012841EB010C1CF578
:103AC000001F0CD80ED14FEAD17C15F5001F0CEB6E
:103AD0004C0C0CF1020C08BF4CEBD37C04E04FF013
:103AE000080C01E04FEAD37C0CEB4C0526FA05F6F6
:103AF00006F00706B6F1040C06D20EEB860CBDE804
:103B000070404CF0010C6047DFE80CF0090B02023A
:103B10004FF000414FF00000A1F5002170BD1946A3
:103B20001046012851EB010418BFD4F5001484BFDE
:103B3000002001F0004170BD0808A0F500114FEA17
:103B40003101704710B591EA030F48BF83F000437D
:103B50003FF5E6AC841A71EB030C07D212198CF016
:103B6000004C43EB0C03001B61EB0C01DFF8A4E1FC
:103B70004FEA1154A4EB135C1EEA430F18BF9EEAF0
:103B8000445F00F0B08023EA6E03524221EA045100
:103B9000C3EB6E0338BF5B1EDCF1200E25D322FA87
:103BA0000CFE10EB0E0043FA0CFE41EB0E01CCF1C3
:103BB000200E03FA0EFE10EB0E0051F10001CCF1C5
:103BC000200E29D412FA0EF201EB0451BDE8104088
:103BD00058BF7047401C1CBFB2F1004F704700280F
:103BE0000CBF491C20F00100704712EB020E43EBA2
:103BF000030218BF4FF0010E4EEA4202ACF1200C56
:103C0000DCF11E0E54D943FA0CFE10EB0E0051F1FC
:103C1000FF31CCF11E0ED5D50EF1010E12FA0EFEBB
:103C2000404141EB010101EB445C5FEA5C5C10D96F
:103C300010EBDE7001EB045138BFBEF1004FBDE860
:103C4000104018BF704700280CBF491C20F001002D
:103C5000704730D24FEAD42C11F5001124F40064DF
:103C60001BD0B1FA81F20B3AA41AA41ED2F12003A0
:103C7000914030FA03F31943904001EBCC71002CD2
:103C800001EB0451BDE81040A8BF704701F1C041ED
:103C90004FF0000001F000417047B0FA80F310FAD5
:103CA00003F100D110BDE41A173C4805C90AE4E746
:103CB00001EB045110BD491001EB0451BDE8104067
:103CC0004FEA300002E04FF0000170474A0008BFA1
:103CD0000042F8D0B2F5001F28BF704701F0004144
:103CE0004FF0000070479EEA445F07D011EA5E0F74
:103CF000BDE8104004BF002100207047BDE810401F
:103D000070B5FFF7CBFE00BF40DFF63E83F0004109
:103D1000104670470000E0FF43004FEAD30C4FEA23
:103D20003C0C43401FBF40070CF1605113F0FE4FA5
:103D300070471CF0006F03D100200CF00041704769
:103D40000CF0004343EA507010B540EACC0000F09C
:103D500042FA00BF000000924FEA0001FFF7ECBEFC
:103D60004FF000414FF00000A1F500217047000026
:103D700090EA010F48BF81F0004100F1BA82421A77
:103D80003CBF801A89184FEAD0524FF07F4C1CEA92
:103D9000410FA2EBD15318BF9CEA026F00F03B80A9
:103DA0004FF0004C4CEA00204CEA012121FA03FCC0
:103DB00010EB0C0C1ED202F1FF325FEA1C2040EB2C
:103DC000C25038BF70471CF07F0F4FEA400C18BF3D
:103DD000BCF17F4F38BF7047C3F12003994008BF43
:103DE00020F00100BCF17F4F38BF7047A0F1C04008
:103DF00000F037BA4FEA3C00000A40EBC25028BF3F
:103E00001CF0FF0F4FEA400CE6D018BFBCF17F4F0B
:103E100038BF7047EAE79CEA026F05D010EA5C0FF2
:103E200008BF00F00040704710B500F0D4F900BFA3
:103E300064FBBE3E014800F0CABA00BF0000C07F6C
:103E4000401058BFC0F14040491058BFC1F1404137
:103E50008142EFF3008070474FF47F0C1CEAD012D0
:103E60001EBF1CEAD11392EA0C0F93EA0C0F00F06C
:103E7000858090EA010F48BF42F4807240F4000C44
:103E800041F400002CF07F4120F07F4000B58142DA
:103E9000A2EB03020FF2081CACEB504EC0F1000085
:103EA0009EF800E04FEA4E0E00FB0EFC38BF4900C2
:103EB0004FEA2C1C02F5FA020CFB0EF34FEACE1E61
:103EC0004FEA112C4FEAC1210EEB635E42EB224216
:103ED0000EFB0CFC4FEA1C5300FB03114FEA112CA4
:103EE0004FEA01310EFB0CFC4FEADC4C00FB0C11DD
:103EF000C14228BF09184CEB03335DF804EB10EB0B
:103F0000410143EBC250B2F57C0F38BF704729D551
:103F100012F0F00F1CBF00F1C04000F000407047ED
:103F2000008182838485868788898B8C8D8E8F9192
:103F30009293959697999A9C9D9FA0A2A3A5A7A8B6
:103F4000AAACAEB0B2B3B5B7B9BCBEC0C2C5C7C9E2
:103F5000CCCED1D4D7D9DCDFE2E6E9ECF0F3F7FA46
:103F6000FE0000004FEA400C0CF1807CBCF17E4F5B
:103F700028BF7047B0F1C04000F073B990EA010F5C
:103F80000CEAD11348BF42F48072624538BF6345E2
:103F900007D213F47F0F16D080EA010000F0004032
:103FA000704710B500F017F9097EFC3E00F005B827
:103FB00080EA010000F00040704780EA010000F054
:103FC000004000F04EB912F47F0F04BF0248704762
:103FD00080EA010000F045B90000C07F41000B0EEF
:103FE000D3F19E0208D950F400034FEA032323FAC9
:103FF00002F048BF4042704710B500F0ECF800BF37
:1040000049922480002070476FF0004282EA20002D
:104010007047000010F0004148BF4042B0FA80F302
:1040200010FA03F2C3F19D030BD051EAC35101EB27
:104030001220530638BF704700F1010008BF20F07E
:1040400001007047B0FA80F310FA03F2C3F19D0348
:104050000AD0D90501EB1220530638BF704700F192
:10406000010008BF20F001007047000050EA010C79
:1040700000F113801CF5000F58BFBCF5000F01D4F0
:104080008842704707D710F5000F58BF11F5000F91
:1040900015D488427047894270471CF5000F04D53B
:1040A000BCF5000FF7D5814270474FF0807C1CEBC8
:1040B000400F38BF1CEB410F01D28142704710B551
:1040C00000F089F8922449004FF000504FF08051E1
:1040D000FFF7B6BE4FF47F0C1CEAD0121EBF1CEADD
:1040E000D11392EA0C0F93EA0C0F00F0478090EA8C
:1040F000010F48BF42F480724FF0004C4CEA0020A0
:104100004CEA012102EB0302A0FB0113A2F500021D
:10411000002918BF43F001035B0028BF4FEA3303B7
:1041200042EB22425FEA132C4CEBC2502EBFBCEB99
:10413000436FB2F57C0F70474FEA036CBCF1004F40
:1041400008BF20F00100B2F57C0F38BF70470BD5D7
:1041500082F0FF0212F5803FC8BF704700F1C040F7
:10416000D8BF00F00040704700F5000C5FEA4C0C2F
:1041700048BF7047B0F1C04000F073B890EA010F3B
:104180000CEAD11348BF42F48072624538BF6345E0
:1041900004D280EA010000F00040704710B500F042
:1041A0001AF800BF8900013E00F007B800F009B816
:1041B0005FEA410C5FEA1C6C08D080EA010000F065
:1041C00050B85FEA400C5FEA1C6CF6D14FF000403B
:1041D000A0F5800070470EF1020E2EF0030E5EF87F
:1041E000044B244204D44FEA4102B2F17F4F11D86C
:1041F0004FEA4003B3F17F4F0CD80ED14FEAD07C89
:10420000B2F17F4F0CEB4C0C0CF1020C08BF4CEBE5
:10421000D17C04E04FF0080C01E04FEAD17C0CEBBC
:104220004C0324FA03F404F00704B4F1040C06D29E
:104230000EEB840CBDE810404CF0010C6047DFE849
:104240000CF0070802024FF00040A0F5800010BDFE
:104250000846420018BFD2F1807288BF00F00040CB
:1042600010BDFF2141EAD050C005704751EA000C53
:1042700000F113801CF5000F58BFBCF5000F01D4EE
:104280008142704707D711F5000F58BF10F5000F96
:1042900015D481427047894270471CF5000F04D540
:1042A000BCF5000FF7D5884270474FF0807C1CEBBF
:1042B000410F38BF1CEB400F01D28842704780EAA3
:1042C000010081EA000180EA0100FFF7F8BE80F0FA
:1042D000004090EA010F7FF552AD81F0004100F0FF
:1042E00008B8000090EA010F48BF81F000413FF597
:1042F00046AD421A04D882F00042A0EB02001144FD
:104300004FEAD0524FF07F4C1CEA410FA2EBD15341
:1043100018BF9CEA026F4AD04FF0004C4CEA0020D4
:104320004CEA012121FA03FCB0EB0C0C0FD412F083
:10433000FE0F36D05FEA4C001DD5001240EBC25094
:1043400038BF70471CF03F0F18BF70470BE0A2F159
:1043500001025FEA1C2040EBC25038BF70471CF0DE
:104360007F0F18BF7047C3F12003994014BF401E50
:1043700020F00100704780084FEA122308BF704701
:10438000B0FA80FCA2EB0C02CCF1280C60FA0CF025
:1043900093EA122F04BF00EBC25070474FEAC3707C
:1043A0007047130A5FEADC1008BF7047F6E79CEA23
:1043B000026F04D010EA5C0F08BF0020704710B5F0
:1043C000FFF709FF40DFF63E81F0004070470CF038
:1043D0000F03092B08BF082000F07F800A2B0BD0A9
:1043E000082B18BF704708BF1CF0400F0AD04FF0D1
:1043F00000004FF0000170471CF0400F18BF4FF055
:10440000004070471CF0100F08D020F0704300F0FF
:104410007F4242EAD3014FEA4370704700F06040A8
:1044200021F07F4242EA000201F07F4040EA7270D0
:1044300070474FF0FF0C4CF4E06C1CEA11531CBFAA
:104440009CEA030C9445C2BFDA4201EB025170476B
:10445000002B0DD0BCF1000F0FD0002A01F000415D
:10446000A4BF41F0E04141F07F614FF00000704790
:1044700001F000414FF00000704750EA01334FF067
:104480009B0C18BF4CF0806C7FF4EAA870474FF08B
:10449000FF0212EAD0521CBF92F0FF038B42C2BF50
:1044A000D14200EBC1507047002A0AD0002B0BD03C
:1044B000002900F00040A4BF40F0FE4040F400009E
:1044C000704700F00040704743024FF00B0C18BFDC
:1044D0004CF0806C7FF4AEAC70471CF4801F11D0A0
:1044E0001CF4E02F03D06FEACC31490070474FF045
:1044F0004050EFF3008222F0704242EA000282F361
:10450000008870474FF00000704700000000000076
:104510000000010203040607080900000000010270
:104520000304000044450008000000201C000000B7
:1045300028010008604500081C0000200C0D000048
:10454000440100080000000001000000100000000D
:10455000000000000024F400000000000000000043
:04000005080000ED02
:00000001FF
